:100000000C943A000C9457000C9457000C94570031
:100010000C9457000C9457000C9457000C94570004
:100020000C9457000C9457000C9457000C945700F4
:100030000C9457000C9457000C9457000C945700E4
:100040000C9457000C9457000C9457000C945700D4
:100050000C9457000C9457000C9457000C945700C4
:100060000C9457000C9457000C9457000C945700B4
:100070000C94570011241FBECFEFD4E0DEBFCDBFDC
:1000800011E0A0E0B1E0ECE0F6E002C005900D92D6
:10009000A039B107D9F722E0A0E9B1E001C01D9273
:1000A000AD30B207E1F70E9457020C9404030C94A0
:1000B0000000E1E6F0E080E880831082A89584B734
:1000C000877F84BFE0E6F0E08081886180831082D2
:1000D000089581E090E061E070E04AB19B01082E54
:1000E00001C0220F0A94EAF7242B2AB9019687301F
:1000F000910599F70895873000F526E030E091E00A
:10010000E1E0F0E0891748F06BB1AF01022E01C0C9
:10011000440F0A94EAF7462B0AC05BB1BF01022ED6
:1001200001C0660F0A94EAF7462F409545234BB964
:100130009F5F21503109973029F70895CF93DF93BE
:10014000EC010E94C8009E0140E050E062E17AE7C5
:1001500080E090E00E94C3023093930120939201CB
:10016000DF91CF91089580919001909191010E942B
:10017000D70020919001309191018091920190914E
:100180009301820F931F90939101809390010895A2
:100190001092800084E0809381001092850010927C
:1001A0008400089580918400909185000895AC01A9
:1001B00080918400909185009C01241B350B283E82
:1001C0003340B0F708952091840030918500820F6C
:1001D000931F0C94D7009C01FC01FF2784A1832B63
:1001E00084A395A1892F832B85A381E00895CF93C4
:1001F000DF93CAE0D1E0899199910E94EB0081E000
:10020000C831D807C1F783E090E40E94EB0080E09A
:1002100090E80E94EB0083E090E10E94EB0083E015
:1002200090E80E94EB0083E090E2DF91CF910C9484
:10023000EB00E0919401F0E0EE0FFF1FE050FF4F64
:1002400020813181F901FF2795A1932B95A3EAE045
:10025000F1E097E020813181D901BB2795962C915F
:10026000959780FF03C03095232301C0232B9596DB
:100270002C938695915032969111ECCFE62FF0E0B9
:10028000EE0FFF1FE050FF4F80819181FC01FF279F
:1002900085A19095892385A3609394010895CF92B9
:1002A000DF92EF92FF920F931F93CF93DF93CDB71F
:1002B000DEB7C857D1090FB6F894DEBF0FBECDBF69
:1002C00028E2E8E1F1E0DE01AF5ABF4F01900D9264
:1002D0002A95E1F728E2E0E4F1E0DE019996019049
:1002E0000D922A95E1F728E2E8E6F1E0DE011196A9
:1002F00001900D922A95E1F7FE01EF5AFF4F25E993
:1003000031E0AE01475D5F4FBE016F5F7F4F6B0114
:1003100068587F4F01911191D9010D931D939D0153
:10032000DA010D911D91AD01D90197961C930E93A1
:100330009697D601ED90FD906D018901025B1F4FEC
:10034000D801ED92FC92E617F70721F728E7E5E9D7
:10035000F1E0DC0101900D922A95E1F7C858DF4FDA
:100360000FB6F894DEBF0FBECDBFDF91CF911F91C6
:100370000F91FF90EF90DF90CF900895FC0182E005
:100380008083818357E0528383839BE094838583BA
:1003900026E02683978341E1408791878287838780
:1003A00081E084872AE02587268738E037876EE05A
:1003B000608B518B428B4DE0438B848B858B4CE063
:1003C000468B878B208F918F428F338F82E1848F72
:1003D000858FCF01089560E070E082E090E008959D
:1003E000CF93DF93CDB7DEB7FC01C356DF4F388123
:1003F000CD59D040CE55DF4F8881C25AD0409E8122
:10040000992319F020812F5F20832181230F2183DD
:100410002281280F22836D810E94BA029381930F5B
:10042000890F8383DF91CF910895FF920F931F93DC
:10043000CF93DF93CDB7DEB7C659D1090FB6F89485
:10044000DEBF0FBECDBF8C01F62ECE0101960E94FD
:100450004F01CE0187589F4F0E94BE01F801F082E4
:100460001182E856FF4F1082319682E090E091832E
:10047000808332968DE090E091838083329682E093
:100480008083319686E08083C801CA56DF4F0FB65D
:10049000F894DEBF0FBECDBFDF91CF911F910F91BA
:1004A000FF90089562E081E00E941901FBCFCF9395
:1004B000DF93CDB7DEB7C357D2400FB6F894DEBF97
:1004C0000FBECDBFCE0182529E4F0E944F01CE0182
:1004D0008A5A9D4F0E94BE010E94EB0161E0CE014D
:1004E000815C9E4F0E94150262E0CE0180569F4FB4
:1004F0000E94150263E0CE0101960E941502BE0122
:10050000615C7E4FC252DE4F88819981CE5DD140C1
:100510000E945202C05CDE4F8881C054D1408823C3
:1005200059F0BE0160567F4FCA5FDD4F88819981C7
:10053000C650D2400E945202CF55DF4F8881C15A27
:10054000D040882359F0BE016F5F7F4FC25DDD4F01
:1005500088819981CE52D2400E94520280E090E080
:10056000CD58DD4F0FB6F894DEBF0FBECDBFDF9183
:10057000CF910895002480FD060E660F11F0869538
:10058000D1F7802D0895052E97FB1EF400940E944C
:10059000DA0257FD07D00E94E20207FC03D04EF4B6
:1005A0000C94DA0250954095309521953F4F4F4F6E
:1005B0005F4F089590958095709561957F4F8F4F0F
:1005C0009F4F0895A1E21A2EAA1BBB1BFD010DC06F
:1005D000AA1FBB1FEE1FFF1FA217B307E407F507F3
:1005E00020F0A21BB30BE40BF50B661F771F881FCF
:1005F000991F1A9469F760957095809590959B0165
:0C060000AC01BD01CF010895F894FFCFBC
:10060C0003400080031003800320004000200010F2
:10061C000008000400020001FFFF218401802184F6
:10062C00FFFE81829182918211BE9F8081BA81925C
:10063C008192DF928192819E818281828182FFFFF1
:10064C00FFFF01885188D18F11885180FB8F018069
:10065C00FB8F1180E18B118A118AD18B5188D18F3C
:10066C00118811801188FFFFFFFF8988098081881C
:10067C00FF8D81843D828581F5DD25902590E59F58
:10068C000582FFFB01900190019001900190FFFF0A
:00000001FF
