:100000000C943A000C944C000C944C000C944C0052
:100010000C944C000C944C000C944C000C944C0030
:100020000C944C000C944C000C944C000C944C0020
:100030000C944C000C944C000C944C000C944C0010
:100040000C944C000C944C000C944C000C944C0000
:100050000C944C000C944C000C944C000C944C00F0
:100060000C944C000C944C000C944C000C944C00E0
:100070000C944C0011241FBECFEFD4E0DEBFCDBFE7
:1000800021E0A0E0B1E001C01D92A430B207E1F789
:100090000E94E0000C9424010C940000E1E6F0E0E2
:1000A00080E880831082A89584B7877F84BFE0E6CC
:1000B000F0E08081886180831082089581E090E083
:1000C00061E070E04AB19B01082E01C0220F0A9442
:1000D000EAF7242B2AB901968730910599F70895FC
:1000E000873000F526E030E091E0E1E0F0E08917AC
:1000F00048F06BB1AF01022E01C0440F0A94EAF739
:10010000462B0AC05BB1BF01022E01C0660F0A94E4
:10011000EAF7462F409545234BB99F5F215031099F
:10012000973029F70895CF93DF93EC010E94BD002B
:100130009E0140E050E062E17AE780E090E00E94BA
:10014000E3003093030120930201DF91CF910895E2
:1001500080910001909101010E94CC00209100014A
:10016000309101018091020190910301820F931F50
:10017000909301018093000108951092800084E023
:1001800080938100109285001092840008958091E0
:100190008400909185000895AC0180918400909135
:1001A00085009C01241B350B283E3340B0F7089591
:1001B0002091840030918500820F931F0C94CC0015
:1001C00080E090E00895052E97FB1EF400940E94B5
:1001D000FA0057FD07D00E94020107FC03D04EF43D
:1001E0000C94FA0050954095309521953F4F4F4F14
:1001F0005F4F089590958095709561957F4F8F4FD3
:100200009F4F0895A1E21A2EAA1BBB1BFD010DC032
:10021000AA1FBB1FEE1FFF1FA217B307E407F507B6
:1002200020F0A21BB30BE40BF50B661F771F881F92
:10023000991F1A9469F760957095809590959B0128
:0C024000AC01BD01CF010895F894FFCF80
:00000001FF
